:100000000C9434000C9446000C9446000C9446006A
:100010000C9446000C9446000C9446000C94460048
:100020000C9446000C9446000C9446000C94460038
:100030000C9446000C9446000C9448000C94460026
:100040000C9446000C9446000C9446000C94460018
:100050000C9446000C9446000C9446000C94460008
:100060000C9446000C94460011241FBECFEFD8E03C
:10007000DEBFCDBF21E0A0E0B1E001C01D92A13004
:10008000B207E1F70E9480000C9498000C940000E5
:100090001F920F920FB60F9211248F939F9387B5E3
:1000A000882391F087B58F3F79F097B58091000153
:1000B000811124C08FEF890F87BD9F918F910F9081
:1000C0000FBE0F901F90189581E090910001911143
:1000D00080E0809300011E9A83ED90E30197F1F791
:1000E00000C000001E9A83ED90E30197F1F700C075
:1000F000000097B5809100018823E1F281E0DBCF19
:1001000080E48AB984B92E9A5E9A80E685BF8FEC26
:100110008093640081E08093610083B7816083BF36
:1001200083B7816083BF889583B78E7F83BFF8CF05
:04013000F894FFCF71
:00000001FF
